{
  "contractName": "trabicCrowdSale",
  "abi": [
    {
      "constant": true,
      "inputs": [],
      "name": "hasClosed",
      "outputs": [
        {
          "name": "",
          "type": "bool"
        }
      ],
      "payable": false,
      "stateMutability": "view",
      "type": "function"
    },
    {
      "constant": true,
      "inputs": [],
      "name": "rate",
      "outputs": [
        {
          "name": "",
          "type": "uint256"
        }
      ],
      "payable": false,
      "stateMutability": "view",
      "type": "function"
    },
    {
      "constant": true,
      "inputs": [],
      "name": "cap",
      "outputs": [
        {
          "name": "",
          "type": "uint256"
        }
      ],
      "payable": false,
      "stateMutability": "view",
      "type": "function"
    },
    {
      "constant": true,
      "inputs": [],
      "name": "goal",
      "outputs": [
        {
          "name": "",
          "type": "uint256"
        }
      ],
      "payable": false,
      "stateMutability": "view",
      "type": "function"
    },
    {
      "constant": true,
      "inputs": [],
      "name": "weiRaised",
      "outputs": [
        {
          "name": "",
          "type": "uint256"
        }
      ],
      "payable": false,
      "stateMutability": "view",
      "type": "function"
    },
    {
      "constant": true,
      "inputs": [
        {
          "name": "",
          "type": "address"
        }
      ],
      "name": "contributions",
      "outputs": [
        {
          "name": "",
          "type": "uint256"
        }
      ],
      "payable": false,
      "stateMutability": "view",
      "type": "function"
    },
    {
      "constant": true,
      "inputs": [],
      "name": "tokenSalePercentage",
      "outputs": [
        {
          "name": "",
          "type": "uint256"
        }
      ],
      "payable": false,
      "stateMutability": "view",
      "type": "function"
    },
    {
      "constant": true,
      "inputs": [],
      "name": "closingTime",
      "outputs": [
        {
          "name": "",
          "type": "uint256"
        }
      ],
      "payable": false,
      "stateMutability": "view",
      "type": "function"
    },
    {
      "constant": false,
      "inputs": [],
      "name": "finalize",
      "outputs": [],
      "payable": false,
      "stateMutability": "nonpayable",
      "type": "function"
    },
    {
      "constant": true,
      "inputs": [],
      "name": "capReached",
      "outputs": [
        {
          "name": "",
          "type": "bool"
        }
      ],
      "payable": false,
      "stateMutability": "view",
      "type": "function"
    },
    {
      "constant": true,
      "inputs": [],
      "name": "wallet",
      "outputs": [
        {
          "name": "",
          "type": "address"
        }
      ],
      "payable": false,
      "stateMutability": "view",
      "type": "function"
    },
    {
      "constant": true,
      "inputs": [],
      "name": "foundersPercentage",
      "outputs": [
        {
          "name": "",
          "type": "uint256"
        }
      ],
      "payable": false,
      "stateMutability": "view",
      "type": "function"
    },
    {
      "constant": true,
      "inputs": [],
      "name": "foundersTimelock",
      "outputs": [
        {
          "name": "",
          "type": "address"
        }
      ],
      "payable": false,
      "stateMutability": "view",
      "type": "function"
    },
    {
      "constant": false,
      "inputs": [],
      "name": "renounceOwnership",
      "outputs": [],
      "payable": false,
      "stateMutability": "nonpayable",
      "type": "function"
    },
    {
      "constant": true,
      "inputs": [],
      "name": "goalReached",
      "outputs": [
        {
          "name": "",
          "type": "bool"
        }
      ],
      "payable": false,
      "stateMutability": "view",
      "type": "function"
    },
    {
      "constant": true,
      "inputs": [],
      "name": "foundationPercentage",
      "outputs": [
        {
          "name": "",
          "type": "uint256"
        }
      ],
      "payable": false,
      "stateMutability": "view",
      "type": "function"
    },
    {
      "constant": false,
      "inputs": [
        {
          "name": "_beneficiary",
          "type": "address"
        }
      ],
      "name": "removeFromWhitelist",
      "outputs": [],
      "payable": false,
      "stateMutability": "nonpayable",
      "type": "function"
    },
    {
      "constant": false,
      "inputs": [
        {
          "name": "_beneficiaries",
          "type": "address[]"
        }
      ],
      "name": "addManyToWhitelist",
      "outputs": [],
      "payable": false,
      "stateMutability": "nonpayable",
      "type": "function"
    },
    {
      "constant": true,
      "inputs": [],
      "name": "isFinalized",
      "outputs": [
        {
          "name": "",
          "type": "bool"
        }
      ],
      "payable": false,
      "stateMutability": "view",
      "type": "function"
    },
    {
      "constant": true,
      "inputs": [],
      "name": "owner",
      "outputs": [
        {
          "name": "",
          "type": "address"
        }
      ],
      "payable": false,
      "stateMutability": "view",
      "type": "function"
    },
    {
      "constant": true,
      "inputs": [],
      "name": "partnersFund",
      "outputs": [
        {
          "name": "",
          "type": "address"
        }
      ],
      "payable": false,
      "stateMutability": "view",
      "type": "function"
    },
    {
      "constant": true,
      "inputs": [
        {
          "name": "",
          "type": "address"
        }
      ],
      "name": "whitelist",
      "outputs": [
        {
          "name": "",
          "type": "bool"
        }
      ],
      "payable": false,
      "stateMutability": "view",
      "type": "function"
    },
    {
      "constant": true,
      "inputs": [],
      "name": "foundationFund",
      "outputs": [
        {
          "name": "",
          "type": "address"
        }
      ],
      "payable": false,
      "stateMutability": "view",
      "type": "function"
    },
    {
      "constant": true,
      "inputs": [],
      "name": "investorMinCap",
      "outputs": [
        {
          "name": "",
          "type": "uint256"
        }
      ],
      "payable": false,
      "stateMutability": "view",
      "type": "function"
    },
    {
      "constant": false,
      "inputs": [],
      "name": "claimRefund",
      "outputs": [],
      "payable": false,
      "stateMutability": "nonpayable",
      "type": "function"
    },
    {
      "constant": true,
      "inputs": [],
      "name": "partnersTimelock",
      "outputs": [
        {
          "name": "",
          "type": "address"
        }
      ],
      "payable": false,
      "stateMutability": "view",
      "type": "function"
    },
    {
      "constant": true,
      "inputs": [],
      "name": "openingTime",
      "outputs": [
        {
          "name": "",
          "type": "uint256"
        }
      ],
      "payable": false,
      "stateMutability": "view",
      "type": "function"
    },
    {
      "constant": true,
      "inputs": [],
      "name": "releaseTime",
      "outputs": [
        {
          "name": "",
          "type": "uint256"
        }
      ],
      "payable": false,
      "stateMutability": "view",
      "type": "function"
    },
    {
      "constant": true,
      "inputs": [],
      "name": "stage",
      "outputs": [
        {
          "name": "",
          "type": "uint8"
        }
      ],
      "payable": false,
      "stateMutability": "view",
      "type": "function"
    },
    {
      "constant": true,
      "inputs": [],
      "name": "foundersFund",
      "outputs": [
        {
          "name": "",
          "type": "address"
        }
      ],
      "payable": false,
      "stateMutability": "view",
      "type": "function"
    },
    {
      "constant": false,
      "inputs": [
        {
          "name": "_beneficiary",
          "type": "address"
        }
      ],
      "name": "addToWhitelist",
      "outputs": [],
      "payable": false,
      "stateMutability": "nonpayable",
      "type": "function"
    },
    {
      "constant": true,
      "inputs": [],
      "name": "foundationTimelock",
      "outputs": [
        {
          "name": "",
          "type": "address"
        }
      ],
      "payable": false,
      "stateMutability": "view",
      "type": "function"
    },
    {
      "constant": false,
      "inputs": [
        {
          "name": "_beneficiary",
          "type": "address"
        }
      ],
      "name": "buyTokens",
      "outputs": [],
      "payable": true,
      "stateMutability": "payable",
      "type": "function"
    },
    {
      "constant": true,
      "inputs": [],
      "name": "investorHardCap",
      "outputs": [
        {
          "name": "",
          "type": "uint256"
        }
      ],
      "payable": false,
      "stateMutability": "view",
      "type": "function"
    },
    {
      "constant": false,
      "inputs": [
        {
          "name": "_newOwner",
          "type": "address"
        }
      ],
      "name": "transferOwnership",
      "outputs": [],
      "payable": false,
      "stateMutability": "nonpayable",
      "type": "function"
    },
    {
      "constant": true,
      "inputs": [],
      "name": "partnersPercentage",
      "outputs": [
        {
          "name": "",
          "type": "uint256"
        }
      ],
      "payable": false,
      "stateMutability": "view",
      "type": "function"
    },
    {
      "constant": true,
      "inputs": [],
      "name": "vault",
      "outputs": [
        {
          "name": "",
          "type": "address"
        }
      ],
      "payable": false,
      "stateMutability": "view",
      "type": "function"
    },
    {
      "constant": true,
      "inputs": [],
      "name": "token",
      "outputs": [
        {
          "name": "",
          "type": "address"
        }
      ],
      "payable": false,
      "stateMutability": "view",
      "type": "function"
    },
    {
      "inputs": [
        {
          "name": "_rate",
          "type": "uint256"
        },
        {
          "name": "_wallet",
          "type": "address"
        },
        {
          "name": "_token",
          "type": "address"
        },
        {
          "name": "_cap",
          "type": "uint256"
        },
        {
          "name": "_openingTime",
          "type": "uint256"
        },
        {
          "name": "_closingTime",
          "type": "uint256"
        },
        {
          "name": "_goal",
          "type": "uint256"
        },
        {
          "name": "_foundersFund",
          "type": "address"
        },
        {
          "name": "_foundationFund",
          "type": "address"
        },
        {
          "name": "_partnersFund",
          "type": "address"
        },
        {
          "name": "_releaseTime",
          "type": "uint256"
        }
      ],
      "payable": false,
      "stateMutability": "nonpayable",
      "type": "constructor"
    },
    {
      "payable": true,
      "stateMutability": "payable",
      "type": "fallback"
    },
    {
      "anonymous": false,
      "inputs": [],
      "name": "Finalized",
      "type": "event"
    },
    {
      "anonymous": false,
      "inputs": [
        {
          "indexed": true,
          "name": "previousOwner",
          "type": "address"
        }
      ],
      "name": "OwnershipRenounced",
      "type": "event"
    },
    {
      "anonymous": false,
      "inputs": [
        {
          "indexed": true,
          "name": "previousOwner",
          "type": "address"
        },
        {
          "indexed": true,
          "name": "newOwner",
          "type": "address"
        }
      ],
      "name": "OwnershipTransferred",
      "type": "event"
    },
    {
      "anonymous": false,
      "inputs": [
        {
          "indexed": true,
          "name": "purchaser",
          "type": "address"
        },
        {
          "indexed": true,
          "name": "beneficiary",
          "type": "address"
        },
        {
          "indexed": false,
          "name": "value",
          "type": "uint256"
        },
        {
          "indexed": false,
          "name": "amount",
          "type": "uint256"
        }
      ],
      "name": "TokenPurchase",
      "type": "event"
    },
    {
      "constant": true,
      "inputs": [
        {
          "name": "_beneficiary",
          "type": "address"
        }
      ],
      "name": "getUserContribution",
      "outputs": [
        {
          "name": "",
          "type": "uint256"
        }
      ],
      "payable": false,
      "stateMutability": "view",
      "type": "function"
    },
    {
      "constant": false,
      "inputs": [
        {
          "name": "_stage",
          "type": "uint256"
        }
      ],
      "name": "setCrowdSaleStage",
      "outputs": [],
      "payable": false,
      "stateMutability": "nonpayable",
      "type": "function"
    }
  ],
  "bytecode": "0x608060405266071afd498d00006003556802b5e3af16b18800006004556000600c60006101000a81548160ff02191690831515021790555066071afd498d0000600f556802b5e3af16b18800006010556000601260006101000a81548160ff021916908360018111156200006f57fe5b02179055506046601355600a601455600a601555600a6016553480156200009557600080fd5b506040516101608062003e1e83398101806040528101908080519060200190929190805190602001909291908051906020019092919080519060200190929190805190602001909291908051906020019092919080519060200190929190805190602001909291908051906020019092919080519060200190929190805190602001909291905050508487878a8e8e8e6000831115156200013557600080fd5b600073ffffffffffffffffffffffffffffffffffffffff168273ffffffffffffffffffffffffffffffffffffffff16141515156200017257600080fd5b600073ffffffffffffffffffffffffffffffffffffffff168173ffffffffffffffffffffffffffffffffffffffff1614151515620001af57600080fd5b8260028190555081600160006101000a81548173ffffffffffffffffffffffffffffffffffffffff021916908373ffffffffffffffffffffffffffffffffffffffff160217905550806000806101000a81548173ffffffffffffffffffffffffffffffffffffffff021916908373ffffffffffffffffffffffffffffffffffffffff1602179055505050506000811115156200024a57600080fd5b80600781905550504282101515156200026257600080fd5b8181101515156200027257600080fd5b8160088190555080600981905550505033600a60006101000a81548173ffffffffffffffffffffffffffffffffffffffff021916908373ffffffffffffffffffffffffffffffffffffffff160217905550600081111515620002d357600080fd5b600160009054906101000a900473ffffffffffffffffffffffffffffffffffffffff1662000300620004ef565b808273ffffffffffffffffffffffffffffffffffffffff1673ffffffffffffffffffffffffffffffffffffffff168152602001915050604051809103906000f08015801562000353573d6000803e3d6000fd5b50600e60006101000a81548173ffffffffffffffffffffffffffffffffffffffff021916908373ffffffffffffffffffffffffffffffffffffffff16021790555080600d8190555050878510151562000414576040517f08c379a000000000000000000000000000000000000000000000000000000000815260040180806020018281038252601d8152602001807f43726f776446756e64696e67207265616368656420486172642043617000000081525060200191505060405180910390fd5b83601760006101000a81548173ffffffffffffffffffffffffffffffffffffffff021916908373ffffffffffffffffffffffffffffffffffffffff16021790555082601860006101000a81548173ffffffffffffffffffffffffffffffffffffffff021916908373ffffffffffffffffffffffffffffffffffffffff16021790555081601960006101000a81548173ffffffffffffffffffffffffffffffffffffffff021916908373ffffffffffffffffffffffffffffffffffffffff16021790555080601a81905550505050505050505050505062000500565b604051610beb806200323383390190565b612d2380620005106000396000f3006080604052600436106101ee576000357c0100000000000000000000000000000000000000000000000000000000900463ffffffff1680631515bc2b146101f95780632a86e726146102285780632c4e722e14610255578063355274ea1461028057806340193883146102ab5780634042b66f146102d657806342e94c901461030157806346daa242146103585780634b6753bc146103835780634bb278f3146103ae5780634f935945146103c5578063521eb273146103f457806353c08ea21461044b57806364ceed9914610476578063715018a6146104cd5780637d3d6522146104e4578063864329e3146105135780638ab1d6811461053e5780638c10671c146105815780638d4e4083146105bc5780638da5cb5b146105eb578063926f0c7b146106425780639b19251a14610699578063a3a3382b146106f4578063b25d7f541461074b578063b5545a3c14610776578063b63e53e01461078d578063b7a8807c146107e4578063b91d40011461080f578063bb8b2b471461083a578063c040e6b814610891578063c440008e146108ca578063e43252d714610921578063ec0de26e14610964578063ec8ac4d8146109bb578063ed5db874146109f1578063f2fde38b14610a1c578063f45b9bed14610a5f578063fbfa77cf14610a8a578063fc0c546a14610ae1575b6101f733610b38565b005b34801561020557600080fd5b5061020e610c10565b604051808215151515815260200191505060405180910390f35b34801561023457600080fd5b5061025360048036038101908080359060200190929190505050610c1c565b005b34801561026157600080fd5b5061026a610d64565b6040518082815260200191505060405180910390f35b34801561028c57600080fd5b50610295610d6a565b6040518082815260200191505060405180910390f35b3480156102b757600080fd5b506102c0610d70565b6040518082815260200191505060405180910390f35b3480156102e257600080fd5b506102eb610d76565b6040518082815260200191505060405180910390f35b34801561030d57600080fd5b50610342600480360381019080803573ffffffffffffffffffffffffffffffffffffffff169060200190929190505050610d7c565b6040518082815260200191505060405180910390f35b34801561036457600080fd5b5061036d610d94565b6040518082815260200191505060405180910390f35b34801561038f57600080fd5b50610398610d9a565b6040518082815260200191505060405180910390f35b3480156103ba57600080fd5b506103c3610da0565b005b3480156103d157600080fd5b506103da610e7c565b604051808215151515815260200191505060405180910390f35b34801561040057600080fd5b50610409610e8b565b604051808273ffffffffffffffffffffffffffffffffffffffff1673ffffffffffffffffffffffffffffffffffffffff16815260200191505060405180910390f35b34801561045757600080fd5b50610460610eb1565b6040518082815260200191505060405180910390f35b34801561048257600080fd5b5061048b610eb7565b604051808273ffffffffffffffffffffffffffffffffffffffff1673ffffffffffffffffffffffffffffffffffffffff16815260200191505060405180910390f35b3480156104d957600080fd5b506104e2610edd565b005b3480156104f057600080fd5b506104f9610fe2565b604051808215151515815260200191505060405180910390f35b34801561051f57600080fd5b50610528610ff1565b6040518082815260200191505060405180910390f35b34801561054a57600080fd5b5061057f600480360381019080803573ffffffffffffffffffffffffffffffffffffffff169060200190929190505050610ff7565b005b34801561058d57600080fd5b506105ba6004803603810190808035906020019082018035906020019190919293919293905050506110ae565b005b3480156105c857600080fd5b506105d16111b0565b604051808215151515815260200191505060405180910390f35b3480156105f757600080fd5b506106006111c3565b604051808273ffffffffffffffffffffffffffffffffffffffff1673ffffffffffffffffffffffffffffffffffffffff16815260200191505060405180910390f35b34801561064e57600080fd5b506106576111e9565b604051808273ffffffffffffffffffffffffffffffffffffffff1673ffffffffffffffffffffffffffffffffffffffff16815260200191505060405180910390f35b3480156106a557600080fd5b506106da600480360381019080803573ffffffffffffffffffffffffffffffffffffffff16906020019092919050505061120f565b604051808215151515815260200191505060405180910390f35b34801561070057600080fd5b5061070961122f565b604051808273ffffffffffffffffffffffffffffffffffffffff1673ffffffffffffffffffffffffffffffffffffffff16815260200191505060405180910390f35b34801561075757600080fd5b50610760611255565b6040518082815260200191505060405180910390f35b34801561078257600080fd5b5061078b61125b565b005b34801561079957600080fd5b506107a2611361565b604051808273ffffffffffffffffffffffffffffffffffffffff1673ffffffffffffffffffffffffffffffffffffffff16815260200191505060405180910390f35b3480156107f057600080fd5b506107f9611387565b6040518082815260200191505060405180910390f35b34801561081b57600080fd5b5061082461138d565b6040518082815260200191505060405180910390f35b34801561084657600080fd5b5061087b600480360381019080803573ffffffffffffffffffffffffffffffffffffffff169060200190929190505050611393565b6040518082815260200191505060405180910390f35b34801561089d57600080fd5b506108a66113dc565b604051808260018111156108b657fe5b60ff16815260200191505060405180910390f35b3480156108d657600080fd5b506108df6113ef565b604051808273ffffffffffffffffffffffffffffffffffffffff1673ffffffffffffffffffffffffffffffffffffffff16815260200191505060405180910390f35b34801561092d57600080fd5b50610962600480360381019080803573ffffffffffffffffffffffffffffffffffffffff169060200190929190505050611415565b005b34801561097057600080fd5b506109796114cc565b604051808273ffffffffffffffffffffffffffffffffffffffff1673ffffffffffffffffffffffffffffffffffffffff16815260200191505060405180910390f35b6109ef600480360381019080803573ffffffffffffffffffffffffffffffffffffffff169060200190929190505050610b38565b005b3480156109fd57600080fd5b50610a066114f2565b6040518082815260200191505060405180910390f35b348015610a2857600080fd5b50610a5d600480360381019080803573ffffffffffffffffffffffffffffffffffffffff1690602001909291905050506114f8565b005b348015610a6b57600080fd5b50610a74611560565b6040518082815260200191505060405180910390f35b348015610a9657600080fd5b50610a9f611566565b604051808273ffffffffffffffffffffffffffffffffffffffff1673ffffffffffffffffffffffffffffffffffffffff16815260200191505060405180910390f35b348015610aed57600080fd5b50610af661158c565b604051808273ffffffffffffffffffffffffffffffffffffffff1673ffffffffffffffffffffffffffffffffffffffff16815260200191505060405180910390f35b600080349150610b4883836115b1565b610b528383611619565b610b5b82611775565b9050610b728260065461179390919063ffffffff16565b600681905550610b8283826117af565b8273ffffffffffffffffffffffffffffffffffffffff163373ffffffffffffffffffffffffffffffffffffffff167f623b3804fa71d67900d064613da8f94b9617215ee90799290593e1745087ad188484604051808381526020018281526020019250505060405180910390a3610bf983836117bd565b610c016117c1565b610c0b8383611876565b505050565b60006009544211905090565b600a60009054906101000a900473ffffffffffffffffffffffffffffffffffffffff1673ffffffffffffffffffffffffffffffffffffffff163373ffffffffffffffffffffffffffffffffffffffff16141515610c7857600080fd5b8060006001811115610c8657fe5b1415610cb5576000601260006101000a81548160ff02191690836001811115610cab57fe5b0217905550610cee565b80600180811115610cc257fe5b1415610ced576001601260006101000a81548160ff02191690836001811115610ce757fe5b02179055505b5b60006001811115610cfb57fe5b601260009054906101000a900460ff166001811115610d1657fe5b1415610d2a576101f4600281905550610d61565b600180811115610d3657fe5b601260009054906101000a900460ff166001811115610d5157fe5b1415610d605760fa6002819055505b5b50565b60025481565b60075481565b600d5481565b60065481565b60116020528060005260406000206000915090505481565b60135481565b60095481565b600a60009054906101000a900473ffffffffffffffffffffffffffffffffffffffff1673ffffffffffffffffffffffffffffffffffffffff163373ffffffffffffffffffffffffffffffffffffffff16141515610dfc57600080fd5b600c60009054906101000a900460ff16151515610e1857600080fd5b610e20610c10565b1515610e2b57600080fd5b610e3361187a565b7f6823b073d48d6e3a7d385eeb601452d680e74bb46afe3255a7d778f3a9b1768160405160405180910390a16001600c60006101000a81548160ff021916908315150217905550565b60006007546006541015905090565b600160009054906101000a900473ffffffffffffffffffffffffffffffffffffffff1681565b60145481565b601b60009054906101000a900473ffffffffffffffffffffffffffffffffffffffff1681565b600a60009054906101000a900473ffffffffffffffffffffffffffffffffffffffff1673ffffffffffffffffffffffffffffffffffffffff163373ffffffffffffffffffffffffffffffffffffffff16141515610f3957600080fd5b600a60009054906101000a900473ffffffffffffffffffffffffffffffffffffffff1673ffffffffffffffffffffffffffffffffffffffff167ff8df31144d9c2f0f6b59d69b8b98abd5459d07f2742c4df920b25aae33c6482060405160405180910390a26000600a60006101000a81548173ffffffffffffffffffffffffffffffffffffffff021916908373ffffffffffffffffffffffffffffffffffffffff160217905550565b6000600d546006541015905090565b60155481565b600a60009054906101000a900473ffffffffffffffffffffffffffffffffffffffff1673ffffffffffffffffffffffffffffffffffffffff163373ffffffffffffffffffffffffffffffffffffffff1614151561105357600080fd5b6000600b60008373ffffffffffffffffffffffffffffffffffffffff1673ffffffffffffffffffffffffffffffffffffffff16815260200190815260200160002060006101000a81548160ff02191690831515021790555050565b6000600a60009054906101000a900473ffffffffffffffffffffffffffffffffffffffff1673ffffffffffffffffffffffffffffffffffffffff163373ffffffffffffffffffffffffffffffffffffffff1614151561110c57600080fd5b600090505b828290508110156111ab576001600b6000858585818110151561113057fe5b9050602002013573ffffffffffffffffffffffffffffffffffffffff1673ffffffffffffffffffffffffffffffffffffffff1673ffffffffffffffffffffffffffffffffffffffff16815260200190815260200160002060006101000a81548160ff0219169083151502179055508080600101915050611111565b505050565b600c60009054906101000a900460ff1681565b600a60009054906101000a900473ffffffffffffffffffffffffffffffffffffffff1681565b601960009054906101000a900473ffffffffffffffffffffffffffffffffffffffff1681565b600b6020528060005260406000206000915054906101000a900460ff1681565b601860009054906101000a900473ffffffffffffffffffffffffffffffffffffffff1681565b600f5481565b600c60009054906101000a900460ff16151561127657600080fd5b61127e610fe2565b15151561128a57600080fd5b600e60009054906101000a900473ffffffffffffffffffffffffffffffffffffffff1673ffffffffffffffffffffffffffffffffffffffff1663fa89401a336040518263ffffffff167c0100000000000000000000000000000000000000000000000000000000028152600401808273ffffffffffffffffffffffffffffffffffffffff1673ffffffffffffffffffffffffffffffffffffffff168152602001915050600060405180830381600087803b15801561134757600080fd5b505af115801561135b573d6000803e3d6000fd5b50505050565b601d60009054906101000a900473ffffffffffffffffffffffffffffffffffffffff1681565b60085481565b601a5481565b6000601160008373ffffffffffffffffffffffffffffffffffffffff1673ffffffffffffffffffffffffffffffffffffffff168152602001908152602001600020549050919050565b601260009054906101000a900460ff1681565b601760009054906101000a900473ffffffffffffffffffffffffffffffffffffffff1681565b600a60009054906101000a900473ffffffffffffffffffffffffffffffffffffffff1673ffffffffffffffffffffffffffffffffffffffff163373ffffffffffffffffffffffffffffffffffffffff1614151561147157600080fd5b6001600b60008373ffffffffffffffffffffffffffffffffffffffff1673ffffffffffffffffffffffffffffffffffffffff16815260200190815260200160002060006101000a81548160ff02191690831515021790555050565b601c60009054906101000a900473ffffffffffffffffffffffffffffffffffffffff1681565b60105481565b600a60009054906101000a900473ffffffffffffffffffffffffffffffffffffffff1673ffffffffffffffffffffffffffffffffffffffff163373ffffffffffffffffffffffffffffffffffffffff1614151561155457600080fd5b61155d8161226f565b50565b60165481565b600e60009054906101000a900473ffffffffffffffffffffffffffffffffffffffff1681565b6000809054906101000a900473ffffffffffffffffffffffffffffffffffffffff1681565b81600b60008273ffffffffffffffffffffffffffffffffffffffff1673ffffffffffffffffffffffffffffffffffffffff16815260200190815260200160002060009054906101000a900460ff16151561160a57600080fd5b611614838361236b565b505050565b60008061162684846115b1565b601160008573ffffffffffffffffffffffffffffffffffffffff1673ffffffffffffffffffffffffffffffffffffffff16815260200190815260200160002054915061167b838361179390919063ffffffff16565b9050600f54811015801561169157506010548111155b151561172b576040517f08c379a00000000000000000000000000000000000000000000000000000000081526004018080602001828103825260378152602001807f74686973207472616e73656374696f6e206f6b206e6f7720206265636175736581526020017f20697420697320696e206265747765656e2072616e676500000000000000000081525060400191505060405180910390fd5b80601160008673ffffffffffffffffffffffffffffffffffffffff1673ffffffffffffffffffffffffffffffffffffffff1681526020019081526020016000208190555050505050565b600061178c6002548361239890919063ffffffff16565b9050919050565b600081830190508281101515156117a657fe5b80905092915050565b6117b982826123d0565b5050565b5050565b60008060018111156117cf57fe5b601260009054906101000a900460ff1660018111156117ea57fe5b141561183c578073ffffffffffffffffffffffffffffffffffffffff166108fc349081150290604051600060405180830381858888f19350505050158015611836573d6000803e3d6000fd5b50611873565b60018081111561184857fe5b601260009054906101000a900460ff16600181111561186357fe5b1415611872576118716124de565b5b5b50565b5050565b600080600080611888610fe2565b15612261576000809054906101000a900473ffffffffffffffffffffffffffffffffffffffff1693508373ffffffffffffffffffffffffffffffffffffffff166318160ddd6040518163ffffffff167c0100000000000000000000000000000000000000000000000000000000028152600401602060405180830381600087803b15801561191557600080fd5b505af1158015611929573d6000803e3d6000fd5b505050506040513d602081101561193f57600080fd5b8101908080519060200190929190505050925061197a606461196c601354866125b690919063ffffffff16565b61239890919063ffffffff16565b91506000809054906101000a900473ffffffffffffffffffffffffffffffffffffffff16601760009054906101000a900473ffffffffffffffffffffffffffffffffffffffff16601a546119cc6127aa565b808473ffffffffffffffffffffffffffffffffffffffff1673ffffffffffffffffffffffffffffffffffffffff1681526020018373ffffffffffffffffffffffffffffffffffffffff1673ffffffffffffffffffffffffffffffffffffffff1681526020018281526020019350505050604051809103906000f080158015611a58573d6000803e3d6000fd5b50601b60006101000a81548173ffffffffffffffffffffffffffffffffffffffff021916908373ffffffffffffffffffffffffffffffffffffffff1602179055506000809054906101000a900473ffffffffffffffffffffffffffffffffffffffff16601860009054906101000a900473ffffffffffffffffffffffffffffffffffffffff16601a54611ae96127aa565b808473ffffffffffffffffffffffffffffffffffffffff1673ffffffffffffffffffffffffffffffffffffffff1681526020018373ffffffffffffffffffffffffffffffffffffffff1673ffffffffffffffffffffffffffffffffffffffff1681526020018281526020019350505050604051809103906000f080158015611b75573d6000803e3d6000fd5b50601c60006101000a81548173ffffffffffffffffffffffffffffffffffffffff021916908373ffffffffffffffffffffffffffffffffffffffff1602179055506000809054906101000a900473ffffffffffffffffffffffffffffffffffffffff16601960009054906101000a900473ffffffffffffffffffffffffffffffffffffffff16601a54611c066127aa565b808473ffffffffffffffffffffffffffffffffffffffff1673ffffffffffffffffffffffffffffffffffffffff1681526020018373ffffffffffffffffffffffffffffffffffffffff1673ffffffffffffffffffffffffffffffffffffffff1681526020018281526020019350505050604051809103906000f080158015611c92573d6000803e3d6000fd5b50601d60006101000a81548173ffffffffffffffffffffffffffffffffffffffff021916908373ffffffffffffffffffffffffffffffffffffffff1602179055508373ffffffffffffffffffffffffffffffffffffffff166340c10f19601b60009054906101000a900473ffffffffffffffffffffffffffffffffffffffff16611d3a6064611d2c6014548861239890919063ffffffff16565b6125b690919063ffffffff16565b6040518363ffffffff167c0100000000000000000000000000000000000000000000000000000000028152600401808373ffffffffffffffffffffffffffffffffffffffff1673ffffffffffffffffffffffffffffffffffffffff16815260200182815260200192505050602060405180830381600087803b158015611dbf57600080fd5b505af1158015611dd3573d6000803e3d6000fd5b505050506040513d6020811015611de957600080fd5b8101908080519060200190929190505050508373ffffffffffffffffffffffffffffffffffffffff166340c10f19601c60009054906101000a900473ffffffffffffffffffffffffffffffffffffffff16611e626064611e546015548861239890919063ffffffff16565b6125b690919063ffffffff16565b6040518363ffffffff167c0100000000000000000000000000000000000000000000000000000000028152600401808373ffffffffffffffffffffffffffffffffffffffff1673ffffffffffffffffffffffffffffffffffffffff16815260200182815260200192505050602060405180830381600087803b158015611ee757600080fd5b505af1158015611efb573d6000803e3d6000fd5b505050506040513d6020811015611f1157600080fd5b8101908080519060200190929190505050508373ffffffffffffffffffffffffffffffffffffffff166340c10f19601d60009054906101000a900473ffffffffffffffffffffffffffffffffffffffff16611f8a6064611f7c6016548861239890919063ffffffff16565b6125b690919063ffffffff16565b6040518363ffffffff167c0100000000000000000000000000000000000000000000000000000000028152600401808373ffffffffffffffffffffffffffffffffffffffff1673ffffffffffffffffffffffffffffffffffffffff16815260200182815260200192505050602060405180830381600087803b15801561200f57600080fd5b505af1158015612023573d6000803e3d6000fd5b505050506040513d602081101561203957600080fd5b8101908080519060200190929190505050508373ffffffffffffffffffffffffffffffffffffffff16637d64bcb46040518163ffffffff167c0100000000000000000000000000000000000000000000000000000000028152600401602060405180830381600087803b1580156120af57600080fd5b505af11580156120c3573d6000803e3d6000fd5b505050506040513d60208110156120d957600080fd5b8101908080519060200190929190505050506000809054906101000a900473ffffffffffffffffffffffffffffffffffffffff1690508073ffffffffffffffffffffffffffffffffffffffff16633f4ba83a6040518163ffffffff167c0100000000000000000000000000000000000000000000000000000000028152600401600060405180830381600087803b15801561217357600080fd5b505af1158015612187573d6000803e3d6000fd5b505050508073ffffffffffffffffffffffffffffffffffffffff1663f2fde38b600160009054906101000a900473ffffffffffffffffffffffffffffffffffffffff166040518263ffffffff167c0100000000000000000000000000000000000000000000000000000000028152600401808273ffffffffffffffffffffffffffffffffffffffff1673ffffffffffffffffffffffffffffffffffffffff168152602001915050600060405180830381600087803b15801561224857600080fd5b505af115801561225c573d6000803e3d6000fd5b505050505b6122696125cc565b50505050565b600073ffffffffffffffffffffffffffffffffffffffff168173ffffffffffffffffffffffffffffffffffffffff16141515156122ab57600080fd5b8073ffffffffffffffffffffffffffffffffffffffff16600a60009054906101000a900473ffffffffffffffffffffffffffffffffffffffff1673ffffffffffffffffffffffffffffffffffffffff167f8be0079c531659141344cd1fd0a4f28419497f9722a3daafe3b4186f6b6457e060405160405180910390a380600a60006101000a81548173ffffffffffffffffffffffffffffffffffffffff021916908373ffffffffffffffffffffffffffffffffffffffff16021790555050565b600854421015801561237f57506009544211155b151561238a57600080fd5b6123948282612725565b5050565b6000808314156123ab57600090506123ca565b81830290508183828115156123bc57fe5b041415156123c657fe5b8090505b92915050565b6000809054906101000a900473ffffffffffffffffffffffffffffffffffffffff1673ffffffffffffffffffffffffffffffffffffffff166340c10f1983836040518363ffffffff167c0100000000000000000000000000000000000000000000000000000000028152600401808373ffffffffffffffffffffffffffffffffffffffff1673ffffffffffffffffffffffffffffffffffffffff16815260200182815260200192505050602060405180830381600087803b15801561249457600080fd5b505af11580156124a8573d6000803e3d6000fd5b505050506040513d60208110156124be57600080fd5b810190808051906020019092919050505015156124da57600080fd5b5050565b600e60009054906101000a900473ffffffffffffffffffffffffffffffffffffffff1673ffffffffffffffffffffffffffffffffffffffff1663f340fa0134336040518363ffffffff167c0100000000000000000000000000000000000000000000000000000000028152600401808273ffffffffffffffffffffffffffffffffffffffff1673ffffffffffffffffffffffffffffffffffffffff1681526020019150506000604051808303818588803b15801561259b57600080fd5b505af11580156125af573d6000803e3d6000fd5b5050505050565b600081838115156125c357fe5b04905092915050565b6125d4610fe2565b1561267c57600e60009054906101000a900473ffffffffffffffffffffffffffffffffffffffff1673ffffffffffffffffffffffffffffffffffffffff166343d726d66040518163ffffffff167c0100000000000000000000000000000000000000000000000000000000028152600401600060405180830381600087803b15801561265f57600080fd5b505af1158015612673573d6000803e3d6000fd5b5050505061271b565b600e60009054906101000a900473ffffffffffffffffffffffffffffffffffffffff1673ffffffffffffffffffffffffffffffffffffffff16638c52dc416040518163ffffffff167c0100000000000000000000000000000000000000000000000000000000028152600401600060405180830381600087803b15801561270257600080fd5b505af1158015612716573d6000803e3d6000fd5b505050505b612723612758565b565b61272f828261275a565b6007546127478260065461179390919063ffffffff16565b1115151561275457600080fd5b5050565b565b600073ffffffffffffffffffffffffffffffffffffffff168273ffffffffffffffffffffffffffffffffffffffff161415151561279657600080fd5b600081141515156127a657600080fd5b5050565b60405161053d806127bb833901905600608060405234801561001057600080fd5b5060405160608061053d833981018060405281019080805190602001909291908051906020019092919080519060200190929190505050428111151561005557600080fd5b826000806101000a81548173ffffffffffffffffffffffffffffffffffffffff021916908373ffffffffffffffffffffffffffffffffffffffff16021790555081600160006101000a81548173ffffffffffffffffffffffffffffffffffffffff021916908373ffffffffffffffffffffffffffffffffffffffff1602179055508060028190555050505061044e806100ef6000396000f300608060405260043610610062576000357c0100000000000000000000000000000000000000000000000000000000900463ffffffff16806338af3eed1461006757806386d1a69f146100be578063b91d4001146100d5578063fc0c546a14610100575b600080fd5b34801561007357600080fd5b5061007c610157565b604051808273ffffffffffffffffffffffffffffffffffffffff1673ffffffffffffffffffffffffffffffffffffffff16815260200191505060405180910390f35b3480156100ca57600080fd5b506100d361017d565b005b3480156100e157600080fd5b506100ea610309565b6040518082815260200191505060405180910390f35b34801561010c57600080fd5b5061011561030f565b604051808273ffffffffffffffffffffffffffffffffffffffff1673ffffffffffffffffffffffffffffffffffffffff16815260200191505060405180910390f35b600160009054906101000a900473ffffffffffffffffffffffffffffffffffffffff1681565b6000600254421015151561019057600080fd5b6000809054906101000a900473ffffffffffffffffffffffffffffffffffffffff1673ffffffffffffffffffffffffffffffffffffffff166370a08231306040518263ffffffff167c0100000000000000000000000000000000000000000000000000000000028152600401808273ffffffffffffffffffffffffffffffffffffffff1673ffffffffffffffffffffffffffffffffffffffff168152602001915050602060405180830381600087803b15801561024c57600080fd5b505af1158015610260573d6000803e3d6000fd5b505050506040513d602081101561027657600080fd5b8101908080519060200190929190505050905060008111151561029857600080fd5b610306600160009054906101000a900473ffffffffffffffffffffffffffffffffffffffff16826000809054906101000a900473ffffffffffffffffffffffffffffffffffffffff1673ffffffffffffffffffffffffffffffffffffffff166103349092919063ffffffff16565b50565b60025481565b6000809054906101000a900473ffffffffffffffffffffffffffffffffffffffff1681565b8273ffffffffffffffffffffffffffffffffffffffff1663a9059cbb83836040518363ffffffff167c0100000000000000000000000000000000000000000000000000000000028152600401808373ffffffffffffffffffffffffffffffffffffffff1673ffffffffffffffffffffffffffffffffffffffff16815260200182815260200192505050602060405180830381600087803b1580156103d757600080fd5b505af11580156103eb573d6000803e3d6000fd5b505050506040513d602081101561040157600080fd5b8101908080519060200190929190505050151561041d57600080fd5b5050505600a165627a7a723058207ab83649aa13b6a10738bceec930768166633395396818f7ff3eb74db446f90a0029a165627a7a7230582011db7e9c0b882a60e2179a3285bb6c3b4ff93bc38ddce15c40e859812ab931540029608060405234801561001057600080fd5b50604051602080610beb83398101806040528101908080519060200190929190505050336000806101000a81548173ffffffffffffffffffffffffffffffffffffffff021916908373ffffffffffffffffffffffffffffffffffffffff160217905550600073ffffffffffffffffffffffffffffffffffffffff168173ffffffffffffffffffffffffffffffffffffffff16141515156100af57600080fd5b80600260006101000a81548173ffffffffffffffffffffffffffffffffffffffff021916908373ffffffffffffffffffffffffffffffffffffffff1602179055506000600260146101000a81548160ff0219169083600281111561010f57fe5b021790555050610ac7806101246000396000f3006080604052600436106100a4576000357c0100000000000000000000000000000000000000000000000000000000900463ffffffff16806343d726d6146100a9578063521eb273146100c0578063715018a6146101175780638c52dc411461012e5780638da5cb5b14610145578063c19d93fb1461019c578063cb13cddb146101d5578063f2fde38b1461022c578063f340fa011461026f578063fa89401a146102a5575b600080fd5b3480156100b557600080fd5b506100be6102e8565b005b3480156100cc57600080fd5b506100d5610448565b604051808273ffffffffffffffffffffffffffffffffffffffff1673ffffffffffffffffffffffffffffffffffffffff16815260200191505060405180910390f35b34801561012357600080fd5b5061012c61046e565b005b34801561013a57600080fd5b50610143610570565b005b34801561015157600080fd5b5061015a610651565b604051808273ffffffffffffffffffffffffffffffffffffffff1673ffffffffffffffffffffffffffffffffffffffff16815260200191505060405180910390f35b3480156101a857600080fd5b506101b1610676565b604051808260028111156101c157fe5b60ff16815260200191505060405180910390f35b3480156101e157600080fd5b50610216600480360381019080803573ffffffffffffffffffffffffffffffffffffffff169060200190929190505050610689565b6040518082815260200191505060405180910390f35b34801561023857600080fd5b5061026d600480360381019080803573ffffffffffffffffffffffffffffffffffffffff1690602001909291905050506106a1565b005b6102a3600480360381019080803573ffffffffffffffffffffffffffffffffffffffff169060200190929190505050610708565b005b3480156102b157600080fd5b506102e6600480360381019080803573ffffffffffffffffffffffffffffffffffffffff16906020019092919050505061082f565b005b6000809054906101000a900473ffffffffffffffffffffffffffffffffffffffff1673ffffffffffffffffffffffffffffffffffffffff163373ffffffffffffffffffffffffffffffffffffffff1614151561034357600080fd5b6000600281111561035057fe5b600260149054906101000a900460ff16600281111561036b57fe5b14151561037757600080fd5b60028060146101000a81548160ff0219169083600281111561039557fe5b02179055507f1cdde67b72a90f19919ac732a437ac2f7a10fc128d28c2a6e525d89ce5cd9d3a60405160405180910390a1600260009054906101000a900473ffffffffffffffffffffffffffffffffffffffff1673ffffffffffffffffffffffffffffffffffffffff166108fc3073ffffffffffffffffffffffffffffffffffffffff16319081150290604051600060405180830381858888f19350505050158015610445573d6000803e3d6000fd5b50565b600260009054906101000a900473ffffffffffffffffffffffffffffffffffffffff1681565b6000809054906101000a900473ffffffffffffffffffffffffffffffffffffffff1673ffffffffffffffffffffffffffffffffffffffff163373ffffffffffffffffffffffffffffffffffffffff161415156104c957600080fd5b6000809054906101000a900473ffffffffffffffffffffffffffffffffffffffff1673ffffffffffffffffffffffffffffffffffffffff167ff8df31144d9c2f0f6b59d69b8b98abd5459d07f2742c4df920b25aae33c6482060405160405180910390a260008060006101000a81548173ffffffffffffffffffffffffffffffffffffffff021916908373ffffffffffffffffffffffffffffffffffffffff160217905550565b6000809054906101000a900473ffffffffffffffffffffffffffffffffffffffff1673ffffffffffffffffffffffffffffffffffffffff163373ffffffffffffffffffffffffffffffffffffffff161415156105cb57600080fd5b600060028111156105d857fe5b600260149054906101000a900460ff1660028111156105f357fe5b1415156105ff57600080fd5b6001600260146101000a81548160ff0219169083600281111561061e57fe5b02179055507f599d8e5a83cffb867d051598c4d70e805d59802d8081c1c7d6dffc5b6aca2b8960405160405180910390a1565b6000809054906101000a900473ffffffffffffffffffffffffffffffffffffffff1681565b600260149054906101000a900460ff1681565b60016020528060005260406000206000915090505481565b6000809054906101000a900473ffffffffffffffffffffffffffffffffffffffff1673ffffffffffffffffffffffffffffffffffffffff163373ffffffffffffffffffffffffffffffffffffffff161415156106fc57600080fd5b61070581610985565b50565b6000809054906101000a900473ffffffffffffffffffffffffffffffffffffffff1673ffffffffffffffffffffffffffffffffffffffff163373ffffffffffffffffffffffffffffffffffffffff1614151561076357600080fd5b6000600281111561077057fe5b600260149054906101000a900460ff16600281111561078b57fe5b14151561079757600080fd5b6107e934600160008473ffffffffffffffffffffffffffffffffffffffff1673ffffffffffffffffffffffffffffffffffffffff16815260200190815260200160002054610a7f90919063ffffffff16565b600160008373ffffffffffffffffffffffffffffffffffffffff1673ffffffffffffffffffffffffffffffffffffffff1681526020019081526020016000208190555050565b60006001600281111561083e57fe5b600260149054906101000a900460ff16600281111561085957fe5b14151561086557600080fd5b600160008373ffffffffffffffffffffffffffffffffffffffff1673ffffffffffffffffffffffffffffffffffffffff1681526020019081526020016000205490506000600160008473ffffffffffffffffffffffffffffffffffffffff1673ffffffffffffffffffffffffffffffffffffffff168152602001908152602001600020819055508173ffffffffffffffffffffffffffffffffffffffff166108fc829081150290604051600060405180830381858888f19350505050158015610932573d6000803e3d6000fd5b508173ffffffffffffffffffffffffffffffffffffffff167fd7dee2702d63ad89917b6a4da9981c90c4d24f8c2bdfd64c604ecae57d8d0651826040518082815260200191505060405180910390a25050565b600073ffffffffffffffffffffffffffffffffffffffff168173ffffffffffffffffffffffffffffffffffffffff16141515156109c157600080fd5b8073ffffffffffffffffffffffffffffffffffffffff166000809054906101000a900473ffffffffffffffffffffffffffffffffffffffff1673ffffffffffffffffffffffffffffffffffffffff167f8be0079c531659141344cd1fd0a4f28419497f9722a3daafe3b4186f6b6457e060405160405180910390a3806000806101000a81548173ffffffffffffffffffffffffffffffffffffffff021916908373ffffffffffffffffffffffffffffffffffffffff16021790555050565b60008183019050828110151515610a9257fe5b809050929150505600a165627a7a723058200307ce3c5119be61e3fc2073df91b5874666b1305ef4827b941118ac0c0155f70029",
  "source": "pragma solidity ^0.4.24;\n\nimport \"../node_modules/openzeppelin-solidity/contracts/token/ERC20/ERC20.sol\";\nimport \"../node_modules/openzeppelin-solidity/contracts/token/ERC20/PausableToken.sol\";\nimport \"../node_modules/openzeppelin-solidity/contracts/token/ERC20/MintableToken.sol\";\nimport \"../node_modules/openzeppelin-solidity/contracts/token/ERC20/TokenTimelock.sol\";\nimport \"../node_modules/openzeppelin-solidity/contracts/crowdsale/Crowdsale.sol\";\nimport \"../node_modules/openzeppelin-solidity/contracts/crowdsale/emission/MintedCrowdsale.sol\";\nimport \"../node_modules/openzeppelin-solidity/contracts/crowdsale/validation/CappedCrowdsale.sol\";\nimport \"../node_modules/openzeppelin-solidity/contracts/crowdsale/validation/TimedCrowdsale.sol\";\nimport \"../node_modules/openzeppelin-solidity/contracts/crowdsale/validation/WhitelistedCrowdsale.sol\";\nimport \"../node_modules/openzeppelin-solidity/contracts/crowdsale/distribution/RefundableCrowdsale.sol\";\n// import \"../node_modules/openzeppelin-solidity/contracts/ownership/Ownable.sol\";\n\n\ncontract trabicCrowdSale is Crowdsale,MintedCrowdsale ,CappedCrowdsale  ,TimedCrowdsale , WhitelistedCrowdsale , RefundableCrowdsale {\n  \n  // Track Invester Contribution\n uint256 public investorMinCap = 2000000000000000; // 0.002 ether\n  uint256 public investorHardCap = 50000000000000000000;// 2 ether\n  mapping(address => uint256) public contributions;\n\n  // ICO Stages\n enum CrowdsaleStage { PreICO, ICO}\n  // Default to PreICO stage\n  CrowdsaleStage public stage = CrowdsaleStage.PreICO;\n\n  // Token Distribution\n  uint256 public tokenSalePercentage   = 70;\n  uint256 public foundersPercentage    = 10;\n  uint256 public foundationPercentage  = 10;\n  uint256 public partnersPercentage    = 10;\n\n    // Token reserve funds\n  address public foundersFund;\n  address public foundationFund;\n  address public partnersFund;\n\n  // Token time lock\n  uint256 public releaseTime;\n  address public foundersTimelock;\n  address public foundationTimelock;\n  address public partnersTimelock;\n\n\n\n// Constructor of CrowdSale Contract\n  constructor(\n    uint256 _rate,\n    address  _wallet,\n    ERC20 _token,\n    uint256 _cap,\n    uint256 _openingTime,\n    uint256 _closingTime,\n    uint256 _goal,\n    address _foundersFund,\n    address _foundationFund,\n    address _partnersFund,\n    uint256 _releaseTime\n      )\n\n  Crowdsale(_rate, _wallet, _token)\n  CappedCrowdsale(_cap)\n  TimedCrowdsale(_openingTime , _closingTime)\n  RefundableCrowdsale(_goal)\n    public {\n    require(_goal < _cap, \"CrowdFunding reached Hard Cap\");\n    foundersFund = _foundersFund;\n    foundationFund = _foundationFund;\n    partnersFund = _partnersFund;\n    releaseTime = _releaseTime;\n}\n\n\n\n\n/**\n  * @dev Returns the amount contributed so far by a sepecific user.\n  * @param _beneficiary Address of contributor\n  * @return User contribution so far\n  */\n  function getUserContribution(address _beneficiary)\n    public view returns (uint256)\n  {\n    return contributions[_beneficiary];\n  }\n\n\n/**\n  * @dev Allows admin to update the crowdsale stage\n  * @param _stage Crowdsale stage\n  */\n\nfunction setCrowdSaleStage(uint256 _stage) public onlyOwner{\n\nif( uint(CrowdsaleStage.PreICO) == _stage ){\n  stage = CrowdsaleStage.PreICO;\n}\nelse if(uint(CrowdsaleStage.ICO) == _stage){\n  stage = CrowdsaleStage.ICO;\n}\n\n\nif(stage == CrowdsaleStage.PreICO){\n  rate = 500;\n}\nelse if(stage == CrowdsaleStage.ICO){\n  rate = 250;\n}\n\n}\n\n\n\n  /**\n   * @dev forwards funds to the wallet during the PreICO stage, then the refund vault during ICO stage\n   */\n  function _forwardFunds() internal {\n    if(stage == CrowdsaleStage.PreICO) {\n    address  wallet;\n    wallet.transfer(msg.value);\n    } else if (stage == CrowdsaleStage.ICO) {\n      super._forwardFunds();\n    }\n  }\n\n\n/**\n  * @dev Extend parent behavior requiring purchase to respect investor min/max funding cap.\n  * @param _beneficiary Token purchaser\n  * @param _weiAmount Amount of wei contributed\n  */\n\nfunction _preValidatePurchase1(\n    address _beneficiary,\n    uint256 _weiAmount\n  )\n    internal\n  {\n    super._preValidatePurchase(_beneficiary, _weiAmount);\n    uint256 _existingContribution = contributions[_beneficiary];\n    uint256 _newContribution = _existingContribution.add(_weiAmount);\n    require(_newContribution >= investorMinCap && _newContribution <= investorHardCap,'this transection ok now  because it is in between range');\n    contributions[_beneficiary] = _newContribution;\n  }\n\n\n /**\n   * @dev enables token transfers, called when owner calls finalize()\n  */\n  function finalization() internal {\n    if(goalReached()) {\n      MintableToken _mintableToken = MintableToken(token);\n      uint256 _alreadyMinted = _mintableToken.totalSupply(); // Get TotalSupply which token buy by invester\n\n      uint256 _finalTotalSupply = _alreadyMinted.div(tokenSalePercentage).mul(100); // final total supply is invester % and added other part in total supply\n\n      foundersTimelock = new TokenTimelock(token, foundersFund, releaseTime);\n      foundationTimelock = new TokenTimelock(token, foundationFund, releaseTime);\n      partnersTimelock = new TokenTimelock(token, partnersFund, releaseTime);\n\n\n      _mintableToken.mint(address(foundersTimelock),   _finalTotalSupply.mul(foundersPercentage).div(100));   //Mint Token of Founders\n      _mintableToken.mint(address(foundationTimelock), _finalTotalSupply.mul(foundationPercentage).div(100));\n      _mintableToken.mint(address(partnersTimelock),   _finalTotalSupply.mul(partnersPercentage).div(100));\n\n\n// Do more stuff....\n      _mintableToken.finishMinting();\n       // Unpause the token\n      PausableToken _pausableToken = PausableToken(token);\n      _pausableToken.unpause();\n      _pausableToken.transferOwnership(wallet);\n    }\n\n    super.finalization();\n  }\n\n}\n",
  "sourcePath": "/home/admins/Desktop/STO/STO-V3/contracts/TrabicCrowdSale.sol",
  "compiler": {
    "name": "solc",
    "version": "0.4.24+commit.e67f0147.Emscripten.clang"
  },
  "schemaVersion": "3.0.11",
  "updatedAt": "2019-09-19T13:16:00.802Z",
  "devdoc": {
    "methods": {
      "addManyToWhitelist(address[])": {
        "details": "Adds list of addresses to whitelist. Not overloaded due to limitations with truffle testing.",
        "params": {
          "_beneficiaries": "Addresses to be added to the whitelist"
        }
      },
      "addToWhitelist(address)": {
        "details": "Adds single address to whitelist.",
        "params": {
          "_beneficiary": "Address to be added to the whitelist"
        }
      },
      "buyTokens(address)": {
        "details": "low level token purchase ***DO NOT OVERRIDE***",
        "params": {
          "_beneficiary": "Address performing the token purchase"
        }
      },
      "capReached()": {
        "details": "Checks whether the cap has been reached.",
        "return": "Whether the cap was reached"
      },
      "claimRefund()": {
        "details": "Investors can claim refunds here if crowdsale is unsuccessful"
      },
      "finalize()": {
        "details": "Must be called after crowdsale ends, to do some extra finalization work. Calls the contract's finalization function."
      },
      "getUserContribution(address)": {
        "details": "Returns the amount contributed so far by a sepecific user.",
        "params": {
          "_beneficiary": "Address of contributor"
        },
        "return": "User contribution so far"
      },
      "goalReached()": {
        "details": "Checks whether funding goal was reached.",
        "return": "Whether funding goal was reached"
      },
      "hasClosed()": {
        "details": "Checks whether the period in which the crowdsale is open has already elapsed.",
        "return": "Whether crowdsale period has elapsed"
      },
      "removeFromWhitelist(address)": {
        "details": "Removes single address from whitelist.",
        "params": {
          "_beneficiary": "Address to be removed to the whitelist"
        }
      },
      "renounceOwnership()": {
        "details": "Allows the current owner to relinquish control of the contract."
      },
      "setCrowdSaleStage(uint256)": {
        "details": "Allows admin to update the crowdsale stage",
        "params": {
          "_stage": "Crowdsale stage"
        }
      },
      "transferOwnership(address)": {
        "details": "Allows the current owner to transfer control of the contract to a newOwner.",
        "params": {
          "_newOwner": "The address to transfer ownership to."
        }
      }
    }
  },
  "userdoc": {
    "methods": {}
  }
}